{
  "_format": "hh-sol-artifact-1",
  "contractName": "EssentialVoting",
  "sourceName": "contracts/EssentialVoting.sol",
  "abi": [
    {
      "anonymous": false,
      "inputs": [
        {
          "indexed": false,
          "internalType": "address",
          "name": "voter",
          "type": "address"
        },
        {
          "indexed": false,
          "internalType": "uint256",
          "name": "electionIndex",
          "type": "uint256"
        },
        {
          "indexed": false,
          "internalType": "uint256",
          "name": "candidateId",
          "type": "uint256"
        },
        {
          "indexed": false,
          "internalType": "uint256",
          "name": "timestamp",
          "type": "uint256"
        }
      ],
      "name": "CastVote",
      "type": "event"
    },
    {
      "anonymous": false,
      "inputs": [
        {
          "indexed": false,
          "internalType": "string",
          "name": "title",
          "type": "string"
        },
        {
          "indexed": false,
          "internalType": "string[]",
          "name": "candidates",
          "type": "string[]"
        },
        {
          "indexed": false,
          "internalType": "uint256",
          "name": "startTime",
          "type": "uint256"
        },
        {
          "indexed": false,
          "internalType": "uint256",
          "name": "endTime",
          "type": "uint256"
        },
        {
          "indexed": false,
          "internalType": "uint256",
          "name": "timestamp",
          "type": "uint256"
        }
      ],
      "name": "NewElection",
      "type": "event"
    },
    {
      "inputs": [
        {
          "internalType": "uint256",
          "name": "index",
          "type": "uint256"
        },
        {
          "internalType": "uint256",
          "name": "candidateId",
          "type": "uint256"
        }
      ],
      "name": "castVote",
      "outputs": [],
      "stateMutability": "nonpayable",
      "type": "function"
    },
    {
      "inputs": [],
      "name": "counter",
      "outputs": [
        {
          "internalType": "uint256",
          "name": "",
          "type": "uint256"
        }
      ],
      "stateMutability": "view",
      "type": "function"
    },
    {
      "inputs": [
        {
          "internalType": "string",
          "name": "title",
          "type": "string"
        },
        {
          "internalType": "string[]",
          "name": "candidates",
          "type": "string[]"
        },
        {
          "internalType": "uint256",
          "name": "startTime",
          "type": "uint256"
        },
        {
          "internalType": "uint256",
          "name": "endTime",
          "type": "uint256"
        },
        {
          "internalType": "address[]",
          "name": "votersAddress",
          "type": "address[]"
        }
      ],
      "name": "createElection",
      "outputs": [],
      "stateMutability": "nonpayable",
      "type": "function"
    },
    {
      "inputs": [
        {
          "internalType": "uint256",
          "name": "",
          "type": "uint256"
        },
        {
          "internalType": "address",
          "name": "",
          "type": "address"
        }
      ],
      "name": "eligibleVoter",
      "outputs": [
        {
          "internalType": "bool",
          "name": "",
          "type": "bool"
        }
      ],
      "stateMutability": "view",
      "type": "function"
    },
    {
      "inputs": [
        {
          "internalType": "uint256",
          "name": "index",
          "type": "uint256"
        }
      ],
      "name": "getElectionByIndex",
      "outputs": [
        {
          "components": [
            {
              "internalType": "string",
              "name": "title",
              "type": "string"
            },
            {
              "internalType": "string[]",
              "name": "candidates",
              "type": "string[]"
            },
            {
              "internalType": "uint256",
              "name": "startTime",
              "type": "uint256"
            },
            {
              "internalType": "uint256",
              "name": "endTime",
              "type": "uint256"
            },
            {
              "internalType": "address[]",
              "name": "votersAddress",
              "type": "address[]"
            }
          ],
          "internalType": "struct EssentialVoting.Election",
          "name": "election",
          "type": "tuple"
        }
      ],
      "stateMutability": "view",
      "type": "function"
    },
    {
      "inputs": [
        {
          "internalType": "uint256",
          "name": "index",
          "type": "uint256"
        },
        {
          "internalType": "uint256",
          "name": "candidateId",
          "type": "uint256"
        }
      ],
      "name": "getTally",
      "outputs": [
        {
          "internalType": "uint256",
          "name": "",
          "type": "uint256"
        }
      ],
      "stateMutability": "view",
      "type": "function"
    },
    {
      "inputs": [
        {
          "internalType": "uint256",
          "name": "",
          "type": "uint256"
        },
        {
          "internalType": "address",
          "name": "",
          "type": "address"
        }
      ],
      "name": "hasVoted",
      "outputs": [
        {
          "internalType": "bool",
          "name": "",
          "type": "bool"
        }
      ],
      "stateMutability": "view",
      "type": "function"
    }
  ],
  "bytecode": "0x60806040526000805534801561001457600080fd5b50611aab806100246000396000f3fe608060405234801561001057600080fd5b506004361061007d5760003560e01c80636e5a81fa1161005b5780636e5a81fa146100ec57806398b903641461011c578063a948358e14610138578063cdae1fba146101685761007d565b80632c0a3f8914610082578063438596321461009e57806361bc221a146100ce575b600080fd5b61009c60048036038101906100979190610fe6565b610198565b005b6100b860048036038101906100b39190610faa565b610432565b6040516100c59190611411565b60405180910390f35b6100d6610461565b6040516100e3919061158f565b60405180910390f35b61010660048036038101906101019190610f81565b610467565b604051610113919061156d565b60405180910390f35b61013660048036038101906101319190610ec2565b6106a1565b005b610152600480360381019061014d9190610faa565b610a13565b60405161015f9190611411565b60405180910390f35b610182600480360381019061017d9190610fe6565b610a42565b60405161018f919061158f565b60405180910390f35b6004600083815260200190815260200160002060003373ffffffffffffffffffffffffffffffffffffffff1673ffffffffffffffffffffffffffffffffffffffff16815260200190815260200160002060009054906101000a900460ff16610235576040517f08c379a000000000000000000000000000000000000000000000000000000000815260040161022c9061148d565b60405180910390fd5b6003600083815260200190815260200160002060003373ffffffffffffffffffffffffffffffffffffffff1673ffffffffffffffffffffffffffffffffffffffff16815260200190815260200160002060009054906101000a900460ff16156102d3576040517f08c379a00000000000000000000000000000000000000000000000000000000081526004016102ca906114ed565b60405180910390fd5b6001600083815260200190815260200160002060020154421015801561030f575060016000838152602001908152602001600020600301544211155b61034e576040517f08c379a00000000000000000000000000000000000000000000000000000000081526004016103459061152d565b60405180910390fd5b6002600083815260200190815260200160002060008281526020019081526020016000206000815480929190610383906117f5565b919050555060016003600084815260200190815260200160002060003373ffffffffffffffffffffffffffffffffffffffff1673ffffffffffffffffffffffffffffffffffffffff16815260200190815260200160002060006101000a81548160ff0219169083151502179055507fed9900dab6a75c4365be7cbd4b55e28c94240e1736db9f30e734228def70a6a23383834260405161042694939291906113cc565b60405180910390a15050565b60036020528160005260406000206020528060005260406000206000915091509054906101000a900460ff1681565b60005481565b61046f610aca565b600160008381526020019081526020016000206040518060a001604052908160008201805461049d90611792565b80601f01602080910402602001604051908101604052809291908181526020018280546104c990611792565b80156105165780601f106104eb57610100808354040283529160200191610516565b820191906000526020600020905b8154815290600101906020018083116104f957829003601f168201915b5050505050815260200160018201805480602002602001604051908101604052809291908181526020016000905b828210156105f057838290600052602060002001805461056390611792565b80601f016020809104026020016040519081016040528092919081815260200182805461058f90611792565b80156105dc5780601f106105b1576101008083540402835291602001916105dc565b820191906000526020600020905b8154815290600101906020018083116105bf57829003601f168201915b505050505081526020019060010190610544565b50505050815260200160028201548152602001600382015481526020016004820180548060200260200160405190810160405280929190818152602001828054801561069157602002820191906000526020600020905b8160009054906101000a900473ffffffffffffffffffffffffffffffffffffffff1673ffffffffffffffffffffffffffffffffffffffff1681526020019060010190808311610647575b5050505050815250509050919050565b6002845110156106e6576040517f08c379a00000000000000000000000000000000000000000000000000000000081526004016106dd906114ad565b60405180910390fd5b42831015610729576040517f08c379a00000000000000000000000000000000000000000000000000000000081526004016107209061150d565b60405180910390fd5b82821161076b576040517f08c379a00000000000000000000000000000000000000000000000000000000081526004016107629061154d565b60405180910390fd5b6040518060a0016040528086815260200185815260200184815260200183815260200182815250600160008054815260200190815260200160002060008201518160000190805190602001906107c2929190610af9565b5060208201518160010190805190602001906107df929190610b7f565b5060408201518160020155606082015181600301556080820151816004019080519060200190610810929190610bdf565b5090505060005b81518110156109b557600160046000805481526020019081526020016000206000848481518110610871577f4e487b7100000000000000000000000000000000000000000000000000000000600052603260045260246000fd5b602002602001015173ffffffffffffffffffffffffffffffffffffffff1673ffffffffffffffffffffffffffffffffffffffff16815260200190815260200160002060006101000a81548160ff021916908315150217905550818181518110610903577f4e487b7100000000000000000000000000000000000000000000000000000000600052603260045260246000fd5b60200260200101516001600080548152602001908152602001600020600401828154811061095a577f4e487b7100000000000000000000000000000000000000000000000000000000600052603260045260246000fd5b9060005260206000200160006101000a81548173ffffffffffffffffffffffffffffffffffffffff021916908373ffffffffffffffffffffffffffffffffffffffff16021790555080806109ad906117f5565b915050610817565b506000808154809291906109c8906117f5565b91905055507f20c857599e1d4c13151188f261d1e366fe11a4ea4d5e94ae75f19c169fbb8c8a8585858542604051610a0495949392919061142c565b60405180910390a15050505050565b60046020528160005260406000206020528060005260406000206000915091509054906101000a900460ff1681565b60006001600084815260200190815260200160002060030154421015610a9d576040517f08c379a0000000000000000000000000000000000000000000000000000000008152600401610a94906114cd565b60405180910390fd5b60026000848152602001908152602001600020600083815260200190815260200160002054905092915050565b6040518060a0016040528060608152602001606081526020016000815260200160008152602001606081525090565b828054610b0590611792565b90600052602060002090601f016020900481019282610b275760008555610b6e565b82601f10610b4057805160ff1916838001178555610b6e565b82800160010185558215610b6e579182015b82811115610b6d578251825591602001919060010190610b52565b5b509050610b7b9190610c69565b5090565b828054828255906000526020600020908101928215610bce579160200282015b82811115610bcd578251829080519060200190610bbd929190610af9565b5091602001919060010190610b9f565b5b509050610bdb9190610c86565b5090565b828054828255906000526020600020908101928215610c58579160200282015b82811115610c575782518260006101000a81548173ffffffffffffffffffffffffffffffffffffffff021916908373ffffffffffffffffffffffffffffffffffffffff16021790555091602001919060010190610bff565b5b509050610c659190610c69565b5090565b5b80821115610c82576000816000905550600101610c6a565b5090565b5b80821115610ca65760008181610c9d9190610caa565b50600101610c87565b5090565b508054610cb690611792565b6000825580601f10610cc85750610ce7565b601f016020900490600052602060002090810190610ce69190610c69565b5b50565b6000610cfd610cf8846115cf565b6115aa565b90508083825260208201905082856020860282011115610d1c57600080fd5b60005b85811015610d4c5781610d328882610e1a565b845260208401935060208301925050600181019050610d1f565b5050509392505050565b6000610d69610d64846115fb565b6115aa565b90508083825260208201905082856020860282011115610d8857600080fd5b60005b85811015610dd257813567ffffffffffffffff811115610daa57600080fd5b808601610db78982610e83565b85526020850194506020840193505050600181019050610d8b565b5050509392505050565b6000610def610dea84611627565b6115aa565b905082815260208101848484011115610e0757600080fd5b610e12848285611750565b509392505050565b600081359050610e2981611a47565b92915050565b600082601f830112610e4057600080fd5b8135610e50848260208601610cea565b91505092915050565b600082601f830112610e6a57600080fd5b8135610e7a848260208601610d56565b91505092915050565b600082601f830112610e9457600080fd5b8135610ea4848260208601610ddc565b91505092915050565b600081359050610ebc81611a5e565b92915050565b600080600080600060a08688031215610eda57600080fd5b600086013567ffffffffffffffff811115610ef457600080fd5b610f0088828901610e83565b955050602086013567ffffffffffffffff811115610f1d57600080fd5b610f2988828901610e59565b9450506040610f3a88828901610ead565b9350506060610f4b88828901610ead565b925050608086013567ffffffffffffffff811115610f6857600080fd5b610f7488828901610e2f565b9150509295509295909350565b600060208284031215610f9357600080fd5b6000610fa184828501610ead565b91505092915050565b60008060408385031215610fbd57600080fd5b6000610fcb85828601610ead565b9250506020610fdc85828601610e1a565b9150509250929050565b60008060408385031215610ff957600080fd5b600061100785828601610ead565b925050602061101885828601610ead565b9150509250929050565b600061102e838361104e565b60208301905092915050565b600061104683836111c3565b905092915050565b61105781611708565b82525050565b61106681611708565b82525050565b600061107782611678565b61108181856116b3565b935061108c83611658565b8060005b838110156110bd5781516110a48882611022565b97506110af83611699565b925050600181019050611090565b5085935050505092915050565b60006110d582611683565b6110df81856116c4565b9350836020820285016110f185611668565b8060005b8581101561112d578484038952815161110e858261103a565b9450611119836116a6565b925060208a019950506001810190506110f5565b50829750879550505050505092915050565b600061114a82611683565b61115481856116d5565b93508360208202850161116685611668565b8060005b858110156111a25784840389528151611183858261103a565b945061118e836116a6565b925060208a0199505060018101905061116a565b50829750879550505050505092915050565b6111bd8161171a565b82525050565b60006111ce8261168e565b6111d881856116e6565b93506111e881856020860161175f565b6111f1816118cb565b840191505092915050565b60006112078261168e565b61121181856116f7565b935061122181856020860161175f565b61122a816118cb565b840191505092915050565b60006112426012836116f7565b915061124d826118dc565b602082019050919050565b6000611265601f836116f7565b915061127082611905565b602082019050919050565b6000611288601d836116f7565b91506112938261192e565b602082019050919050565b60006112ab6017836116f7565b91506112b682611957565b602082019050919050565b60006112ce6020836116f7565b91506112d982611980565b602082019050919050565b60006112f16022836116f7565b91506112fc826119a9565b604082019050919050565b60006113146021836116f7565b915061131f826119f8565b604082019050919050565b600060a083016000830151848203600086015261134782826111c3565b9150506020830151848203602086015261136182826110ca565b915050604083015161137660408601826113ae565b50606083015161138960608601826113ae565b50608083015184820360808601526113a1828261106c565b9150508091505092915050565b6113b781611746565b82525050565b6113c681611746565b82525050565b60006080820190506113e1600083018761105d565b6113ee60208301866113bd565b6113fb60408301856113bd565b61140860608301846113bd565b95945050505050565b600060208201905061142660008301846111b4565b92915050565b600060a082019050818103600083015261144681886111fc565b9050818103602083015261145a818761113f565b905061146960408301866113bd565b61147660608301856113bd565b61148360808301846113bd565b9695505050505050565b600060208201905081810360008301526114a681611235565b9050919050565b600060208201905081810360008301526114c681611258565b9050919050565b600060208201905081810360008301526114e68161127b565b9050919050565b600060208201905081810360008301526115068161129e565b9050919050565b60006020820190508181036000830152611526816112c1565b9050919050565b60006020820190508181036000830152611546816112e4565b9050919050565b6000602082019050818103600083015261156681611307565b9050919050565b60006020820190508181036000830152611587818461132a565b905092915050565b60006020820190506115a460008301846113bd565b92915050565b60006115b46115c5565b90506115c082826117c4565b919050565b6000604051905090565b600067ffffffffffffffff8211156115ea576115e961189c565b5b602082029050602081019050919050565b600067ffffffffffffffff8211156116165761161561189c565b5b602082029050602081019050919050565b600067ffffffffffffffff8211156116425761164161189c565b5b61164b826118cb565b9050602081019050919050565b6000819050602082019050919050565b6000819050602082019050919050565b600081519050919050565b600081519050919050565b600081519050919050565b6000602082019050919050565b6000602082019050919050565b600082825260208201905092915050565b600082825260208201905092915050565b600082825260208201905092915050565b600082825260208201905092915050565b600082825260208201905092915050565b600061171382611726565b9050919050565b60008115159050919050565b600073ffffffffffffffffffffffffffffffffffffffff82169050919050565b6000819050919050565b82818337600083830152505050565b60005b8381101561177d578082015181840152602081019050611762565b8381111561178c576000848401525b50505050565b600060028204905060018216806117aa57607f821691505b602082108114156117be576117bd61186d565b5b50919050565b6117cd826118cb565b810181811067ffffffffffffffff821117156117ec576117eb61189c565b5b80604052505050565b600061180082611746565b91507fffffffffffffffffffffffffffffffffffffffffffffffffffffffffffffffff8214156118335761183261183e565b5b600182019050919050565b7f4e487b7100000000000000000000000000000000000000000000000000000000600052601160045260246000fd5b7f4e487b7100000000000000000000000000000000000000000000000000000000600052602260045260246000fd5b7f4e487b7100000000000000000000000000000000000000000000000000000000600052604160045260246000fd5b6000601f19601f8301169050919050565b7f766f746572206e6f7420656c696769626c650000000000000000000000000000600082015250565b7f6d7573742068617665206174206c6561737420322063616e6469646174657300600082015250565b7f7468652074616c6c79206265666f72652074686520656e642074696d65000000600082015250565b7f766f7465722068617320616c726561647920766f746564000000000000000000600082015250565b7f73746172742074696d65206d75737420626520696e2074686520667574757265600082015250565b7f766f74652063617374206e6f7420647572696e6720656c656374696f6e20746960008201527f6d65000000000000000000000000000000000000000000000000000000000000602082015250565b7f656e642074696d65206d7573742062652061667465722073746172742074696d60008201527f6500000000000000000000000000000000000000000000000000000000000000602082015250565b611a5081611708565b8114611a5b57600080fd5b50565b611a6781611746565b8114611a7257600080fd5b5056fea2646970667358221220a58d327f6aad919e49e3446edea953a09cc65f5546a967ab159c2d5f27112f7764736f6c63430008040033",
  "linkReferences": {},
  "deployedLinkReferences": {}
}