{
  "_format": "hh-sol-artifact-1",
  "contractName": "EssentialVoting",
  "sourceName": "contracts/EssentialVoting.sol",
  "abi": [
    {
      "anonymous": false,
      "inputs": [
        {
          "indexed": false,
          "internalType": "address",
          "name": "voter",
          "type": "address"
        },
        {
          "indexed": false,
          "internalType": "uint256",
          "name": "electionIndex",
          "type": "uint256"
        },
        {
          "indexed": false,
          "internalType": "uint256",
          "name": "candidateId",
          "type": "uint256"
        },
        {
          "indexed": false,
          "internalType": "uint256",
          "name": "timestamp",
          "type": "uint256"
        }
      ],
      "name": "CastVote",
      "type": "event"
    },
    {
      "anonymous": false,
      "inputs": [
        {
          "indexed": false,
          "internalType": "string",
          "name": "title",
          "type": "string"
        },
        {
          "indexed": false,
          "internalType": "string[]",
          "name": "candidates",
          "type": "string[]"
        },
        {
          "indexed": false,
          "internalType": "uint256",
          "name": "startTime",
          "type": "uint256"
        },
        {
          "indexed": false,
          "internalType": "uint256",
          "name": "endTime",
          "type": "uint256"
        },
        {
          "indexed": false,
          "internalType": "uint256",
          "name": "timestamp",
          "type": "uint256"
        }
      ],
      "name": "NewElection",
      "type": "event"
    },
    {
      "inputs": [
        {
          "internalType": "uint256",
          "name": "index",
          "type": "uint256"
        },
        {
          "internalType": "uint256",
          "name": "candidateId",
          "type": "uint256"
        }
      ],
      "name": "castVote",
      "outputs": [],
      "stateMutability": "nonpayable",
      "type": "function"
    },
    {
      "inputs": [],
      "name": "counter",
      "outputs": [
        {
          "internalType": "uint256",
          "name": "",
          "type": "uint256"
        }
      ],
      "stateMutability": "view",
      "type": "function"
    },
    {
      "inputs": [
        {
          "internalType": "string",
          "name": "title",
          "type": "string"
        },
        {
          "internalType": "string[]",
          "name": "candidates",
          "type": "string[]"
        },
        {
          "internalType": "uint256",
          "name": "startTime",
          "type": "uint256"
        },
        {
          "internalType": "uint256",
          "name": "endTime",
          "type": "uint256"
        },
        {
          "internalType": "address[]",
          "name": "votersAddress",
          "type": "address[]"
        }
      ],
      "name": "createElection",
      "outputs": [],
      "stateMutability": "nonpayable",
      "type": "function"
    },
    {
      "inputs": [
        {
          "internalType": "uint256",
          "name": "",
          "type": "uint256"
        },
        {
          "internalType": "address",
          "name": "",
          "type": "address"
        }
      ],
      "name": "eligibleVoter",
      "outputs": [
        {
          "internalType": "bool",
          "name": "",
          "type": "bool"
        }
      ],
      "stateMutability": "view",
      "type": "function"
    },
    {
      "inputs": [
        {
          "internalType": "uint256",
          "name": "index",
          "type": "uint256"
        }
      ],
      "name": "getElectionByIndex",
      "outputs": [
        {
          "components": [
            {
              "internalType": "string",
              "name": "title",
              "type": "string"
            },
            {
              "internalType": "string[]",
              "name": "candidates",
              "type": "string[]"
            },
            {
              "internalType": "uint256",
              "name": "startTime",
              "type": "uint256"
            },
            {
              "internalType": "uint256",
              "name": "endTime",
              "type": "uint256"
            },
            {
              "internalType": "address[]",
              "name": "votersAddress",
              "type": "address[]"
            }
          ],
          "internalType": "struct EssentialVoting.Election",
          "name": "election",
          "type": "tuple"
        }
      ],
      "stateMutability": "view",
      "type": "function"
    },
    {
      "inputs": [
        {
          "internalType": "uint256",
          "name": "index",
          "type": "uint256"
        },
        {
          "internalType": "uint256",
          "name": "candidateId",
          "type": "uint256"
        }
      ],
      "name": "getTally",
      "outputs": [
        {
          "internalType": "uint256",
          "name": "",
          "type": "uint256"
        }
      ],
      "stateMutability": "view",
      "type": "function"
    },
    {
      "inputs": [
        {
          "internalType": "uint256",
          "name": "",
          "type": "uint256"
        },
        {
          "internalType": "address",
          "name": "",
          "type": "address"
        }
      ],
      "name": "hasVoted",
      "outputs": [
        {
          "internalType": "bool",
          "name": "",
          "type": "bool"
        }
      ],
      "stateMutability": "view",
      "type": "function"
    }
  ],
  "bytecode": "0x60806040526000805534801561001457600080fd5b50611ca6806100246000396000f3fe608060405234801561001057600080fd5b506004361061007d5760003560e01c80636e5a81fa1161005b5780636e5a81fa146100ec57806398b903641461011c578063a948358e14610138578063cdae1fba146101685761007d565b80632c0a3f8914610082578063438596321461009e57806361bc221a146100ce575b600080fd5b61009c600480360381019061009791906111e1565b610198565b005b6100b860048036038101906100b391906111a5565b61052b565b6040516100c591906115e9565b60405180910390f35b6100d661055a565b6040516100e391906117b5565b60405180910390f35b6101066004803603810190610101919061117c565b610560565b6040516101139190611793565b60405180910390f35b610136600480360381019061013191906110bd565b61079a565b005b610152600480360381019061014d91906111a5565b610b0b565b60405161015f91906115e9565b60405180910390f35b610182600480360381019061017d91906111e1565b610b3a565b60405161018f91906117b5565b60405180910390f35b610218604051806060016040528060248152602001611c4d60249139336004600086815260200190815260200160002060003373ffffffffffffffffffffffffffffffffffffffff1673ffffffffffffffffffffffffffffffffffffffff16815260200190815260200160002060009054906101000a900460ff16610b69565b6102b46040518060400160405280600c81526020017f686173566f7465643a20257300000000000000000000000000000000000000008152506003600085815260200190815260200160002060003373ffffffffffffffffffffffffffffffffffffffff1673ffffffffffffffffffffffffffffffffffffffff16815260200190815260200160002060009054906101000a900460ff16610c08565b6004600083815260200190815260200160002060003373ffffffffffffffffffffffffffffffffffffffff1673ffffffffffffffffffffffffffffffffffffffff16815260200190815260200160002060009054906101000a900460ff16610351576040517f08c379a0000000000000000000000000000000000000000000000000000000008152600401610348906116d3565b60405180910390fd5b6003600083815260200190815260200160002060003373ffffffffffffffffffffffffffffffffffffffff1673ffffffffffffffffffffffffffffffffffffffff16815260200190815260200160002060009054906101000a900460ff16156103ef576040517f08c379a00000000000000000000000000000000000000000000000000000000081526004016103e690611733565b60405180910390fd5b60016000838152602001908152602001600020600301544210610447576040517f08c379a000000000000000000000000000000000000000000000000000000000815260040161043e90611713565b60405180910390fd5b600260008381526020019081526020016000206000828152602001908152602001600020600081548092919061047c90611a1b565b919050555060016003600084815260200190815260200160002060003373ffffffffffffffffffffffffffffffffffffffff1673ffffffffffffffffffffffffffffffffffffffff16815260200190815260200160002060006101000a81548160ff0219169083151502179055507fed9900dab6a75c4365be7cbd4b55e28c94240e1736db9f30e734228def70a6a23383834260405161051f94939291906115a4565b60405180910390a15050565b60036020528160005260406000206020528060005260406000206000915091509054906101000a900460ff1681565b60005481565b610568610cc5565b600160008381526020019081526020016000206040518060a0016040529081600082018054610596906119b8565b80601f01602080910402602001604051908101604052809291908181526020018280546105c2906119b8565b801561060f5780601f106105e45761010080835404028352916020019161060f565b820191906000526020600020905b8154815290600101906020018083116105f257829003601f168201915b5050505050815260200160018201805480602002602001604051908101604052809291908181526020016000905b828210156106e957838290600052602060002001805461065c906119b8565b80601f0160208091040260200160405190810160405280929190818152602001828054610688906119b8565b80156106d55780601f106106aa576101008083540402835291602001916106d5565b820191906000526020600020905b8154815290600101906020018083116106b857829003601f168201915b50505050508152602001906001019061063d565b50505050815260200160028201548152602001600382015481526020016004820180548060200260200160405190810160405280929190818152602001828054801561078a57602002820191906000526020600020905b8160009054906101000a900473ffffffffffffffffffffffffffffffffffffffff1673ffffffffffffffffffffffffffffffffffffffff1681526020019060010190808311610740575b5050505050815250509050919050565b6002845110156107df576040517f08c379a00000000000000000000000000000000000000000000000000000000081526004016107d6906116f3565b60405180910390fd5b428311610821576040517f08c379a000000000000000000000000000000000000000000000000000000000815260040161081890611753565b60405180910390fd5b828211610863576040517f08c379a000000000000000000000000000000000000000000000000000000000815260040161085a90611773565b60405180910390fd5b6040518060a0016040528086815260200185815260200184815260200183815260200182815250600160008054815260200190815260200160002060008201518160000190805190602001906108ba929190610cf4565b5060208201518160010190805190602001906108d7929190610d7a565b5060408201518160020155606082015181600301556080820151816004019080519060200190610908929190610dda565b5090505060005b8151811015610aad57600160046000805481526020019081526020016000206000848481518110610969577f4e487b7100000000000000000000000000000000000000000000000000000000600052603260045260246000fd5b602002602001015173ffffffffffffffffffffffffffffffffffffffff1673ffffffffffffffffffffffffffffffffffffffff16815260200190815260200160002060006101000a81548160ff0219169083151502179055508181815181106109fb577f4e487b7100000000000000000000000000000000000000000000000000000000600052603260045260246000fd5b602002602001015160016000805481526020019081526020016000206004018281548110610a52577f4e487b7100000000000000000000000000000000000000000000000000000000600052603260045260246000fd5b9060005260206000200160006101000a81548173ffffffffffffffffffffffffffffffffffffffff021916908373ffffffffffffffffffffffffffffffffffffffff1602179055508080610aa590611a1b565b91505061090f565b50600080815480929190610ac090611a1b565b91905055507f20c857599e1d4c13151188f261d1e366fe11a4ea4d5e94ae75f19c169fbb8c8a8585858542604051610afc959493929190611642565b60405180910390a15050505050565b60046020528160005260406000206020528060005260406000206000915091509054906101000a900460ff1681565b600060026000848152602001908152602001600020600083815260200190815260200160002054905092915050565b610c03838383604051602401610b8193929190611604565b6040516020818303038152906040527fc91d5ed4000000000000000000000000000000000000000000000000000000007bffffffffffffffffffffffffffffffffffffffffffffffffffffffff19166020820180517bffffffffffffffffffffffffffffffffffffffffffffffffffffffff8381831617835250505050610ca4565b505050565b610ca08282604051602401610c1e9291906116a3565b6040516020818303038152906040527fc3b55635000000000000000000000000000000000000000000000000000000007bffffffffffffffffffffffffffffffffffffffffffffffffffffffff19166020820180517bffffffffffffffffffffffffffffffffffffffffffffffffffffffff8381831617835250505050610ca4565b5050565b60006a636f6e736f6c652e6c6f679050600080835160208501845afa505050565b6040518060a0016040528060608152602001606081526020016000815260200160008152602001606081525090565b828054610d00906119b8565b90600052602060002090601f016020900481019282610d225760008555610d69565b82601f10610d3b57805160ff1916838001178555610d69565b82800160010185558215610d69579182015b82811115610d68578251825591602001919060010190610d4d565b5b509050610d769190610e64565b5090565b828054828255906000526020600020908101928215610dc9579160200282015b82811115610dc8578251829080519060200190610db8929190610cf4565b5091602001919060010190610d9a565b5b509050610dd69190610e81565b5090565b828054828255906000526020600020908101928215610e53579160200282015b82811115610e525782518260006101000a81548173ffffffffffffffffffffffffffffffffffffffff021916908373ffffffffffffffffffffffffffffffffffffffff16021790555091602001919060010190610dfa565b5b509050610e609190610e64565b5090565b5b80821115610e7d576000816000905550600101610e65565b5090565b5b80821115610ea15760008181610e989190610ea5565b50600101610e82565b5090565b508054610eb1906119b8565b6000825580601f10610ec35750610ee2565b601f016020900490600052602060002090810190610ee19190610e64565b5b50565b6000610ef8610ef3846117f5565b6117d0565b90508083825260208201905082856020860282011115610f1757600080fd5b60005b85811015610f475781610f2d8882611015565b845260208401935060208301925050600181019050610f1a565b5050509392505050565b6000610f64610f5f84611821565b6117d0565b90508083825260208201905082856020860282011115610f8357600080fd5b60005b85811015610fcd57813567ffffffffffffffff811115610fa557600080fd5b808601610fb2898261107e565b85526020850194506020840193505050600181019050610f86565b5050509392505050565b6000610fea610fe58461184d565b6117d0565b90508281526020810184848401111561100257600080fd5b61100d848285611976565b509392505050565b60008135905061102481611c1e565b92915050565b600082601f83011261103b57600080fd5b813561104b848260208601610ee5565b91505092915050565b600082601f83011261106557600080fd5b8135611075848260208601610f51565b91505092915050565b600082601f83011261108f57600080fd5b813561109f848260208601610fd7565b91505092915050565b6000813590506110b781611c35565b92915050565b600080600080600060a086880312156110d557600080fd5b600086013567ffffffffffffffff8111156110ef57600080fd5b6110fb8882890161107e565b955050602086013567ffffffffffffffff81111561111857600080fd5b61112488828901611054565b9450506040611135888289016110a8565b9350506060611146888289016110a8565b925050608086013567ffffffffffffffff81111561116357600080fd5b61116f8882890161102a565b9150509295509295909350565b60006020828403121561118e57600080fd5b600061119c848285016110a8565b91505092915050565b600080604083850312156111b857600080fd5b60006111c6858286016110a8565b92505060206111d785828601611015565b9150509250929050565b600080604083850312156111f457600080fd5b6000611202858286016110a8565b9250506020611213858286016110a8565b9150509250929050565b60006112298383611249565b60208301905092915050565b600061124183836113be565b905092915050565b6112528161192e565b82525050565b6112618161192e565b82525050565b60006112728261189e565b61127c81856118d9565b93506112878361187e565b8060005b838110156112b857815161129f888261121d565b97506112aa836118bf565b92505060018101905061128b565b5085935050505092915050565b60006112d0826118a9565b6112da81856118ea565b9350836020820285016112ec8561188e565b8060005b8581101561132857848403895281516113098582611235565b9450611314836118cc565b925060208a019950506001810190506112f0565b50829750879550505050505092915050565b6000611345826118a9565b61134f81856118fb565b9350836020820285016113618561188e565b8060005b8581101561139d578484038952815161137e8582611235565b9450611389836118cc565b925060208a01995050600181019050611365565b50829750879550505050505092915050565b6113b881611940565b82525050565b60006113c9826118b4565b6113d3818561190c565b93506113e3818560208601611985565b6113ec81611af1565b840191505092915050565b6000611402826118b4565b61140c818561191d565b935061141c818560208601611985565b61142581611af1565b840191505092915050565b600061143d60128361191d565b915061144882611b02565b602082019050919050565b6000611460601f8361191d565b915061146b82611b2b565b602082019050919050565b6000611483601c8361191d565b915061148e82611b54565b602082019050919050565b60006114a660178361191d565b91506114b182611b7d565b602082019050919050565b60006114c960208361191d565b91506114d482611ba6565b602082019050919050565b60006114ec60218361191d565b91506114f782611bcf565b604082019050919050565b600060a083016000830151848203600086015261151f82826113be565b9150506020830151848203602086015261153982826112c5565b915050604083015161154e6040860182611586565b5060608301516115616060860182611586565b50608083015184820360808601526115798282611267565b9150508091505092915050565b61158f8161196c565b82525050565b61159e8161196c565b82525050565b60006080820190506115b96000830187611258565b6115c66020830186611595565b6115d36040830185611595565b6115e06060830184611595565b95945050505050565b60006020820190506115fe60008301846113af565b92915050565b6000606082019050818103600083015261161e81866113f7565b905061162d6020830185611258565b61163a60408301846113af565b949350505050565b600060a082019050818103600083015261165c81886113f7565b90508181036020830152611670818761133a565b905061167f6040830186611595565b61168c6060830185611595565b6116996080830184611595565b9695505050505050565b600060408201905081810360008301526116bd81856113f7565b90506116cc60208301846113af565b9392505050565b600060208201905081810360008301526116ec81611430565b9050919050565b6000602082019050818103600083015261170c81611453565b9050919050565b6000602082019050818103600083015261172c81611476565b9050919050565b6000602082019050818103600083015261174c81611499565b9050919050565b6000602082019050818103600083015261176c816114bc565b9050919050565b6000602082019050818103600083015261178c816114df565b9050919050565b600060208201905081810360008301526117ad8184611502565b905092915050565b60006020820190506117ca6000830184611595565b92915050565b60006117da6117eb565b90506117e682826119ea565b919050565b6000604051905090565b600067ffffffffffffffff8211156118105761180f611ac2565b5b602082029050602081019050919050565b600067ffffffffffffffff82111561183c5761183b611ac2565b5b602082029050602081019050919050565b600067ffffffffffffffff82111561186857611867611ac2565b5b61187182611af1565b9050602081019050919050565b6000819050602082019050919050565b6000819050602082019050919050565b600081519050919050565b600081519050919050565b600081519050919050565b6000602082019050919050565b6000602082019050919050565b600082825260208201905092915050565b600082825260208201905092915050565b600082825260208201905092915050565b600082825260208201905092915050565b600082825260208201905092915050565b60006119398261194c565b9050919050565b60008115159050919050565b600073ffffffffffffffffffffffffffffffffffffffff82169050919050565b6000819050919050565b82818337600083830152505050565b60005b838110156119a3578082015181840152602081019050611988565b838111156119b2576000848401525b50505050565b600060028204905060018216806119d057607f821691505b602082108114156119e4576119e3611a93565b5b50919050565b6119f382611af1565b810181811067ffffffffffffffff82111715611a1257611a11611ac2565b5b80604052505050565b6000611a268261196c565b91507fffffffffffffffffffffffffffffffffffffffffffffffffffffffffffffffff821415611a5957611a58611a64565b5b600182019050919050565b7f4e487b7100000000000000000000000000000000000000000000000000000000600052601160045260246000fd5b7f4e487b7100000000000000000000000000000000000000000000000000000000600052602260045260246000fd5b7f4e487b7100000000000000000000000000000000000000000000000000000000600052604160045260246000fd5b6000601f19601f8301169050919050565b7f766f746572206e6f7420656c696769626c650000000000000000000000000000600082015250565b7f6d7573742068617665206174206c6561737420322063616e6469646174657300600082015250565b7f766f746520636173742061667465722074686520656e642074696d6500000000600082015250565b7f766f7465722068617320616c726561647920766f746564000000000000000000600082015250565b7f73746172742074696d65206d75737420626520696e2074686520667574757265600082015250565b7f656e642074696d65206d7573742062652061667465722073746172742074696d60008201527f6500000000000000000000000000000000000000000000000000000000000000602082015250565b611c278161192e565b8114611c3257600080fd5b50565b611c3e8161196c565b8114611c4957600080fd5b5056fe6164647265737320257320697320696e20656c696769626c6520766f746572733a202573a2646970667358221220656e2f542b1c582e57ba5caab11c64d688f6c28f133f97447387459f3a92d9ff64736f6c63430008040033",
  "linkReferences": {},
  "deployedLinkReferences": {}
}